:100000000128F52FDB2DDE2DE12DE42DE72DEB2D45
:10001000EF2DF42D762E792E7C2E7F2E822E862E9D
:100020008A2E8F2E6B2F6E2F712F742F772F7B2F91
:040030007F2F842F6B
:10084C001834640080010131890B282C0034F60126
:10085C00F11F372CF009F109F00A0319F10AF6011E
:10086C00F60AF31F422CF209F309F20A0319F30AF0
:10087C000130F4007408F606F701F80170087104F1
:10088C000319712CF501F50AF11B562C0130F035CA
:10089C00F10D890B4D2C0130F4007408F5074A2C2E
:1008AC000130F735F80D890B572C71087302031DB5
:1008BC00612C70087202031C682C7008F20271081B
:1008CC00F33B77140130F136F00C890B692C0130B5
:1008DC00F502031D562C76080319792CF709F80933
:1008EC00F70A0319F80A7808F1007708F0000800F5
:1008FC00F030210099000D308C008E010530230062
:10090C008C008030210095009E171E088F392038EE
:10091C009E00FC309E051D148B0138302000950084
:10092C00E90122008E120E168E150E158E108C10EB
:10093C000C12833021009D0522008C160E143130D0
:10094C00FB00B430FA009430F900F90BAB2CFA0B25
:10095C00AB2CFB0BAB2C00320630FA003030F9001C
:10096C00F90BB62CFA0BB62C000021009D149D1827
:10097C00BD2C1C082000E10021001B082000E00019
:10098C0002306102013003196002031CE02C2200CA
:10099C008C12C730F9000000F90BD12C003200008A
:1009AC0022008C16C730F9000000F90BDA2C00324B
:1009BC000000562D22008E158C12E430F900003206
:1009CC000032F90BE52C0032000022008C16E430CA
:1009DC00F90000320032F90BEF2C0032000022003B
:1009EC008C12E430F90000320032F90BF92C003291
:1009FC00000022008C16E430F90000320032F90BB2
:100A0C00032D003200000930FB001E30FA00EB30E1
:100A1C00F900F90B0F2DFA0B0F2DFB0B0F2D00000E
:100A2C0021009D149D18182D1C082000E1002100A8
:100A3C001B082000E0000230610201300319600243
:100A4C00031C3B2D22008C12C730F9000000F90B5F
:100A5C002C2D0032000022008C16C730F90000004B
:100A6C00F90B352D00320000562DE901E90A220060
:100A7C000E1021001D08833908389D0022008C12AD
:100A8C00C730F9000000F90B482D0032000022009D
:100A9C008C16C730F9000000F90B512D0032000004
:100AAC002930FB009630FA00A630F900F90B5C2DCA
:100ABC00FA0B5C2DFB0B5C2DFD01FD0120006D087C
:100ACC007D020318EC2E02307D020318702D2000DD
:100ADC00EB01762D7D08FE3EF90079082000EB0035
:100AEC006D08FE3EF900FF3003180030FA007A085A
:100AFC00803AFB0080307B02031D862D7D08790235
:100B0C0003188E2D20006D08FF3EF9007908932DF7
:100B1C007D08023EF90079082000EC0022008C12BE
:100B2C001530FA00C630F900F90B9A2DFA0B9A2DF4
:100B3C00000020006B08F9007908E8002B2E220039
:100B4C008E120E16AC2D22008E160E128E15B22D94
:100B5C0022008E160E168E110E15F92D22008E16F1
:100B6C000E168E150E11F92D0830F0000030F10024
:100B7C0020006808F900FA017908F2007A08F300FD
:100B8C002D247108003A0319CC2DF92D7008003A68
:100B9C000319A52D013A0319A92D033A0319AE2DFA
:100BAC00013A0319B42DF92DF92D22008E10E92DDF
:100BBC0022008E10ED2D22008E10F12D22008E10B1
:100BCC00F62D22008E148C10F22D22008E148C1017
:100BDC00F72D22008E148C140C120D2E22008E1464
:100BEC008C140C160D2E200068080739F900FA0138
:100BFC007A08003A0319032E0D2E79088400083068
:100C0C00040203180D2E80310230040782000830D4
:100C1C00FA004430F900F90B112EFA0B112E0000DA
:100C2C0021009D149D18182E1C082000E1002100A5
:100C3C001B082000E00060086407E4006108653DC3
:100C4C00E5000130F9007908E80768086C02031820
:100C5C00BA2D22008C161530FA00C630F900F90BAB
:100C6C00352EFA0B352E000020006B08F9007908A0
:100C7C00E800C62E22008E120E16472E22008E166B
:100C8C000E128E154D2E22008E160E168E110E156E
:100C9C00942E22008E160E168E150E11942E0830E0
:100CAC00F0000030F10020006808F900FA01790822
:100CBC00F2007A08F3002D247108003A0319672E0C
:100CCC00942E7008003A0319402E013A0319442E51
:100CDC00033A0319492E013A03194F2E942E942EE0
:100CEC0022008E10842E22008E10882E22008E1050
:100CFC008C2E22008E10912E22008E148C108D2E94
:100D0C0022008E148C10922E22008E148C140C1235
:100D1C00A82E22008E148C140C16A82E2000680805
:100D2C000739F900FA017A08003A03199E2EA82E09
:100D3C0079088400083004020318A82E80310A3088
:100D4C00040782000830FA004430F900F90BAC2E8D
:100D5C00FA0BAC2E000021009D149D18B32E1C081C
:100D6C002000E10021001B082000E000600866075D
:100D7C00E6006108673DE7000130F9007908E807F3
:100D8C0068086C020318552E64081E3EF9000030EA
:100D9C00653DFA00F909FA09F90A0319FA0A660815
:100DAC007907FB0067087A3DFC007D35203E860004
:100DBC0087017B08C03F7C08C13FE601E701E401E5
:100DCC00E5010130F9007908FD07642DFD012200D1
:100DDC008C12C730F9000000F90BF12E0032000024
:100DEC0022008C160E14FD012000E601E7010230F2
:100DFC007D020318032FEB01082F7D08FE3EF9003E
:100E0C007908EB006D08FE3EF900FF300318003046
:100E1C00FA007A08803AFB0080307B02031D182F01
:100E2C007D0879020318202F20006D08FF3EF90081
:100E3C007908252F7D08023EF90079082000EC0086
:100E4C001530FA00C630F900F90B2A2FFA0B2A2FAD
:100E5C00000020006B08F9007908E800BB2F220085
:100E6C008E120E163C2F22008E160E128E15422F4D
:100E7C0022008E160E168E110E15892F22008E163C
:100E8C000E168E150E11892F0830F0000030F1006F
:100E9C0020006808F900FA017908F2007A08F300DA
:100EAC002D247108003A03195C2F892F7008003A21
:100EBC000319352F013A0319392F033A03193E2F21
:100ECC00013A0319442F892F892F22008E10792F74
:100EDC0022008E107D2F22008E10812F22008E106A
:100EEC00862F22008E148C10822F22008E148C10D0
:100EFC00872F22008E148C140C129D2F22008E141E
:100F0C008C140C169D2F200068080739F900FA0183
:100F1C007A08003A0319932F9D2F79088400083022
:100F2C00040203189D2F8031123004078200083010
:100F3C00FA004430F900F90BA12FFA0BA12F000095
:100F4C0021009D149D18A82F1C082000E1002100F1
:100F5C001B082000E00060086607E6006108673D9A
:100F6C00E7000130F9007908E80768086C020318FB
:100F7C004A2F7D35203E86008701403FF900413FD6
:100F8C00FA0067087A02031DCD2F66087902031850
:100F9C00F22F0130F9007908FD076D08FF3EF900CA
:100FAC00FF3003180030FA007A08803AFB008030DA
:100FBC007B02031DE32F7D087902031CFD01220037
:100FCC008C12C730F9000000F90BE92F0032000039
:100FDC0022008C160E14FA2E22000E10FA2EFD0191
:100FEC0020308400003085004D3027242624ED006D
:040FFC0020007E2C27
:020000040001F9
:04000E00E4CFFFFE3E
:00000001FF
